:020000040800F2
:1000000000000520B18B0008018C0008018C00085D
:10001000018C0008018C0008018C00080000000021
:1000200000000000000000000000000075890008CA
:1000300079890008000000007D8900088189000896
:10004000018C0008018C0008018C0008018C00085C
:10005000018C0008018C0008018C0008018C00084C
:10006000018C0008018C0008018C0008018C00083C
:10007000018C0008018C0008018C0008018C00082C
:10008000018C0008018C0008018C0008018C00081C
:10009000018C0008018C0008018C0008018C00080C
:1000A000018C0008018C0008018C0008018C0008FC
:1000B000018C000891890008018C0008018C00085F
:1000C000018C0008018C0008018C0008018C0008DC
:1000D000018C0008018C0008018C0008018C0008CC
:1000E000018C0008018C0008018C0008018C0008BC
:1000F000018C0008018C0008018C0008018C0008AC
:10010000018C0008018C0008018C0008018C00089B
:10011000018C0008018C00089D890008018C0008F2
:10012000D9890008018C0008018C0008018C0008A6
:10013000E5890008018C0008018C0008018C00088A
:10014000018C0008018C0008018C0008018C00085B
:10015000018C0008018C0008CD890008018C000882
:10016000018C0008018C0008018C0008018C00083B
:10017000018C0008018C0008018C000800000000C0
:10018000018C0008018C0008018C0008018C00081B
:10019000018C0008018C0008018C0008018C00080B
:1001A000A9890008B5890008C1890008018C0008E8
:1001B000018C0008018C0008018C0008018C0008EB
:0801C000018C0008018C00080D
:1001C80010B5054C237833B9044B13B10448AFF389
:1001D80000800123237010BDA00300200000000050
:1001E800C085010808B5034B1BB103490348AFF3A9
:1001F800008008BD00000000A4030020C08501089D
:1002080081F0004102E000BF83F0004330B54FEABF
:1002180041044FEA430594EA050F08BF90EA020F2C
:100228001FBF54EA000C55EA020C7FEA645C7FEABF
:10023800655C00F0E2804FEA5454D4EB5555B8BFE2
:100248006D420CDD2C4480EA020281EA030382EA53
:10025800000083EA010180EA020281EA0303362DE5
:1002680088BF30BD11F0004F4FEA01314FF4801CB8
:100278004CEA113102D0404261EB410113F0004FCA
:100288004FEA03334CEA133302D0524263EB430381
:1002980094EA050F00F0A780A4F10104D5F1200E1F
:1002A8000DDB02FA0EFC22FA05F2801841F100017A
:1002B80003FA0EF2801843FA05F359410EE0A5F14E
:1002C80020050EF1200E012A03FA0EFC28BF4CF07F
:1002D800020C43FA05F3C01851EBE37101F0004535
:1002E80007D54FF0000EDCF1000C7EEB00006EEB42
:1002F8000101B1F5801F1BD3B1F5001F0CD34908CC
:100308005FEA30004FEA3C0C04F101044FEA445222
:1003180012F5800F80F09A80BCF1004F08BF5FEAA9
:10032800500C50F1000041EB045141EA050130BD89
:100338005FEA4C0C404141EB010111F4801FA4F12C
:100348000104E9D191F0000F04BF01460020B1FA81
:1003580081F308BF2033A3F10B03B3F120020CDAB9
:100368000C3208DD02F1140CC2F10C0201FA0CF097
:1003780021FA02F10CE002F11402D8BFC2F1200CFC
:1003880001FA02F120FA0CFCDCBF41EA0C019040B2
:10039800E41AA2BF01EB0451294330BD6FEA0404FB
:1003A8001F3C1CDA0C340EDC04F11404C4F12002E6
:1003B80020FA04F001FA02F340EA030021FA04F3F8
:1003C80045EA030130BDC4F10C04C4F1200220FA4F
:1003D80002F001FA04F340EA0300294630BD21FA8D
:1003E80004F0294630BD94F0000F83F4801306BF53
:1003F80081F480110134013D4EE77FEA645C18BF47
:100408007FEA655C29D094EA050F08BF90EA020FDD
:1004180005D054EA000C04BF1946104630BD91EAD5
:10042800030F1EBF0021002030BD5FEA545C05D1D8
:100438004000494128BF41F0004130BD14F5800417
:100448003CBF01F5801130BD01F0004545F0FE418B
:1004580041F470014FF0000030BD7FEA645C1ABFC0
:10046800194610467FEA655C1CBF0B46024650EAF7
:10047800013406BF52EA033591EA030F41F4002123
:1004880030BD00BF90F0000F04BF0021704730B5A9
:100498004FF4806404F132044FF000054FF000017E
:1004A80050E700BF90F0000F04BF0021704730B53F
:1004B8004FF4806404F1320410F0004548BF404214
:1004C8004FF000013EE700BF42004FEAE2014FEA69
:1004D80031014FEA02701FBF12F07F4393F07F4F44
:1004E80081F06051704732F07F4208BF704793F047
:1004F8007F4F04BF41F40021704730B54FF460745A
:1005080001F0004521F000411CE700BF50EA01025C
:1005180008BF704730B54FF000050AE050EA010205
:1005280008BF704730B511F0004502D5404261EB75
:1005380041014FF4806404F132045FEA915C3FF4B6
:10054800D8AE4FF003025FEADC0C18BF03325FEA53
:10055800DC0C18BF033202EBDC02C2F1200300FA04
:1005680003FC20FA02F001FA03FE40EA0E0021FA29
:1005780002F11444BDE600BF70B54FF0FF0C4CF417
:10058800E06C1CEA11541DBF1CEA135594EA0C0FC9
:1005980095EA0C0F00F0DEF82C4481EA030621EA04
:1005A8004C5123EA4C5350EA013518BF52EA03353F
:1005B80041F4801143F4801338D0A0FB02CE4FF0F1
:1005C8000005E1FB02E506F00042E0FB03E54FF021
:1005D8000006E1FB03569CF0000F18BF4EF0010E19
:1005E800A4F1FF04B6F5007F64F5407404D25FEA15
:1005F8004E0E6D4146EB060642EAC62141EA5551C8
:100608004FEAC52040EA5E504FEACE2EB4F1FD0C09
:1006180088BFBCF5E06F1ED8BEF1004F08BF5FEA87
:10062800500E50F1000041EB045170BD06F0004639
:1006380046EA010140EA020081EA0301B4EB5C04E6
:10064800C2BFD4EB0C0541EA045170BD41F48011DE
:100658004FF0000E013C00F3AB8014F1360FDEBF03
:10066800002001F0004170BDC4F10004203C35DADF
:100678000C341BDC04F11404C4F1200500FA05F362
:1006880020FA04F001FA05F240EA020001F0004203
:1006980021F0004110EBD37021FA04F642EB060179
:1006A8005EEA430E08BF20EAD37070BDC4F10C04A3
:1006B800C4F1200500FA04F320FA05F001FA04F267
:1006C80040EA020001F0004110EBD37041F1000153
:1006D8005EEA430E08BF20EAD37070BDC4F120055E
:1006E80000FA05F24EEA020E20FA04F301FA05F2C6
:1006F80043EA020321FA04F001F0004121FA04F26E
:1007080020EA020000EBD3705EEA430E08BF20EA3D
:10071800D37070BD94F0000F0FD101F00046400077
:1007280041EB010111F4801F08BF013CF7D041EAF9
:10073800060195F0000F18BF704703F000465200FD
:1007480043EB030313F4801F08BF013DF7D043EACE
:100758000603704794EA0C0F0CEA135518BF95EA84
:100768000C0F0CD050EA410618BF52EA4306D1D10B
:1007780081EA030101F000414FF0000070BD50EA2A
:10078800410606BF1046194652EA430619D094EAB4
:100798000C0F02D150EA013613D195EA0C0F05D19E
:1007A80052EA03361CBF104619460AD181EA0301F2
:1007B80001F0004141F0FE4141F470014FF00000AA
:1007C80070BD41F0FE4141F4780170BD70B54FF045
:1007D800FF0C4CF4E06C1CEA11541DBF1CEA1355C5
:1007E80094EA0C0F95EA0C0F00F0A7F8A4EB0504A7
:1007F80081EA030E52EA03354FEA013100F088809E
:100808004FEA03334FF0805545EA131343EA126366
:100818004FEA022245EA111545EA10654FEA00261B
:100828000EF000419D4208BF964244F1FD0404F5D4
:10083800407402D25B084FEA3202B61A65EB030530
:100848005B084FEA32024FF480104FF4002CB6EBED
:10085800020E75EB030E22BFB61A754640EA0C006D
:100868005B084FEA3202B6EB020E75EB030E22BFAD
:10087800B61A754640EA5C005B084FEA3202B6EBEE
:10088800020E75EB030E22BFB61A754640EA9C00AD
:100898005B084FEA3202B6EB020E75EB030E22BF7D
:1008A800B61A754640EADC0055EA060E18D04FEA3B
:1008B800051545EA16754FEA06164FEAC30343EADB
:1008C80052734FEAC2025FEA1C1CC0D111F4801FA8
:1008D8000BD141EA00014FF000004FF0004CB6E7A1
:1008E80011F4801F04BF01430020B4F1FD0C88BF40
:1008F800BCF5E06F3FF6AFAEB5EB030C04BFB6EB4B
:10090800020C5FEA500C50F1000041EB045170BD3D
:100918000EF0004E4EEA113114EB5C04C2BFD4EB6A
:100928000C0541EA045170BD41F480114FF0000EEE
:10093800013C90E645EA060E8DE60CEA135594EA6A
:100948000C0F08BF95EA0C0F3FF43BAF94EA0C0F6D
:100958000AD150EA01347FF434AF95EA0C0F7FF4E2
:1009680025AF104619462CE795EA0C0F06D152EA36
:1009780003353FF4FDAE1046194622E750EA41061A
:1009880018BF52EA43067FF4C5AE50EA41047FF42B
:100998000DAF52EA43057FF4EBAE12E74FF0FF3C90
:1009A80006E000BF4FF0010C02E000BF4FF0010C61
:1009B8004DF804CD4FEA410C7FEA6C5C4FEA430CDA
:1009C80018BF7FEA6C5C1BD001B050EA410C0CBF29
:1009D80052EA430C91EA030F02BF90EA020F00208B
:1009E800704710F1000F91EA030F58BF994208BFF2
:1009F80090422CBFD8176FEAE37040F001007047AF
:100A08004FEA410C7FEA6C5C02D150EA013C07D105
:100A18004FEA430C7FEA6C5CD6D152EA033CD3D050
:100A28005DF8040B704700BF8446104662468C464A
:100A38001946634600E000BF01B5FFF7B7FF00287D
:100A480048BF10F1000F01BD4DF808EDFFF7F4FFA6
:100A58000CBF012000205DF808FB00BF4DF808ED31
:100A6800FFF7EAFF34BF012000205DF808FB00BF54
:100A78004DF808EDFFF7E0FF94BF012000205DF876
:100A880008FB00BF4DF808EDFFF7CEFF94BF01202B
:100A980000205DF808FB00BF4DF808EDFFF7C4FF24
:100AA80034BF012000205DF808FB00BF4FEA410277
:100AB80012F5001215D211D56FF47873B3EB6252A8
:100AC80012D94FEAC12343F0004343EA505311F0CF
:100AD800004F23FA02F018BF404270474FF0000061
:100AE800704750EA013005D111F0004008BF6FF09F
:100AF800004070474FF00000704700BF4FEA4102C6
:100B0800B2F1E04324BFB3F5001CDCF1FE5C0DD963
:100B180001F0004C4FEAC0024CEA5070B2F1004FAD
:100B280040EB830008BF20F00100704711F0804FB0
:100B380021D113F13872BCBF01F00040704741F475
:100B480080114FEA5252C2F11802C2F1200C10FA79
:100B58000CF320FA02F018BF40F001004FEAC1235D
:100B68004FEAD32303FA0CFC40EA0C0023FA02F301
:100B78004FEA4303CCE77FEA625307D150EA0133D7
:100B88001EBF4FF0FE4040F44000704701F00040A7
:100B980040F0FE4040F40000704700BF7BB972B9D6
:100BA8000029BEBF00204FF0004106E008BF002822
:100BB8001CBF6FF000414FF0FF3000F0BDB9ADF140
:100BC800080C6DE904CE002909DB002B1ADB00F0C4
:100BD8004DF8DDF804E0DDE9022304B07047404237
:100BE80061EB4101002B1BDB00F040F8DDF804E06D
:100BF800DDE9022304B0404261EB4101524263EB5C
:100C080043037047524263EB430300F02FF8DDF8CB
:100C180004E0DDE9022304B0404261EB4101704782
:100C2800524263EB430300F021F8DDF804E0DDE90C
:100C3800022304B0524263EB4303704753B94AB9E5
:100C4800002908BF00281CBF4FF0FF314FF0FF30CC
:100C580000F072B9ADF1080C6DE904CE00F006F8A9
:100C6800DDF804E0DDE9022304B070472DE9F04720
:100C7800089E04468846002B4BD18A42154667D900
:100C8800B2FA82F24AB1C2F1200701FA02F320FA5D
:100C980007F7954047EA030894404FEA154E230C9E
:100CA800B8FBFEF71FFA85FC0EFB178843EA0843DA
:100CB80007FB0CF1994209D9EB1807F1FF3080F0D6
:100CC8001B81994240F21881023F2B445B1AA4B25F
:100CD800B3FBFEF00EFB103344EA034400FB0CFCAC
:100CE800A44509D92C1900F1FF3380F00781A445E8
:100CF80040F2048102382C4440EA0740A4EB0C047B
:100D080000271EB1D4400023C6E900433946BDE898
:100D1800F0878B4209D9002E00F0EB800027C6E946
:100D2800000138463946BDE8F087B3FA83F7002F4B
:100D380047D18B4202D3824200F2FA80841A61EBD7
:100D4800030301209846002EE0D0C6E90048DDE7FD
:100D580002B9FFDEB2FA82F2002A40F08F80491B06
:100D68004FEA154E1FFA85F80127B1FBFEFC230C4C
:100D78000EFB1C1143EA014308FB0CF1994207D909
:100D8800EB180CF1FF3002D2994200F2CD80844674
:100D9800591AA3B2B1FBFEF00EFB101443EA044447
:100DA80008FB00F8A04507D92C1900F1FF3302D23F
:100DB800A04500F2B6801846A4EB080440EA0C40AF
:100DC8009FE7C7F1200CBB4022FA0CFE4EEA030E47
:100DD80001FA07F420FA0CF521FA0CF34FEA1E4841
:100DE8002543B3FBF8F92C0C08FB19331FFA8EFACC
:100DF80044EA034309FB0AF49C4202FA07F200FAA8
:100E080007F10BD91EEB030309F1FF3080F087804F
:100E18009C4240F28480A9F1020973441B1BADB2C5
:100E2800B3FBF8F008FB103345EA034400FB0AFA69
:100E3800A24508D91EEB040400F1FF336BD2A2458A
:100E480069D90238744440EA0940A0FB0289A4EB3E
:100E58000A044C45C2464B4654D351D0002E69D0A3
:100E6800B1EB0A0564EB030404FA0CFCFD40FC40FA
:100E78004CEA0505C6E90054002747E7C2F12003FC
:100E880020FA03F7954001FA02F021FA03F34FEA3A
:100E9800154E3843010CB3FBFEF71FFA85F80EFB1D
:100EA800173341EA034107FB08F38B4204FA02F4C3
:100EB80007D9691807F1FF3C2FD28B422DD9023F81
:100EC8002944CB1A81B2B3FBFEF00EFB103341EA82
:100ED800034100FB08F38B4207D9691800F1FF3C76
:100EE80017D28B4215D902382944C91A40EA074754
:100EF8003BE73746304609E70746E7E61846FBE68C
:100F08004145ABD2B8EB020A69EB0E020138134631
:100F1800A4E76046E9E7184695E76746D1E78146C2
:100F28007CE702382C4447E7ACF1020C2B442FE74E
:100F3800384608E73746E9E6704700BF034613F826
:100F4800012B002AFBD1181A01387047704700BFDF
:100F58000020704710B5064CC82001F07BF92378B3
:100F680003B110BD01F0A4F80123237010BD00BF28
:100F7800C003002030B5114C83B000220546237809
:100F88008DF80720ABB1EDB2002401E0512B0CD055
:100F98000134A8212846E4B201F022F98DF80700AF
:100FA800022C9DF80730DBB2F0D99DF8070003B09A
:100FB80030BD01F07DF801232370E4E7C003002071
:100FC80010B5002482B0C0B202218DF8074001F0AC
:100FD80007F98DF807009DF8073003F00F038DF827
:100FE80007309DF80730052B01D98DF807409DF88B
:100FF80007100022034B9DF8070059709A7002B041
:1010080010BD00BFC00300202DE9F04F2C4E83B067
:101018004FF00008B37874788DF807809C4248D95F
:10102800092B49D8274DDFF8ACC0274F274CED5C7A
:101038001CF803B017F803A014F80380C4B289465B
:10104800294617462046224D01F0CAF8034659465C
:1010580020468DF807309DF807302B8001F0C0F846
:1010680003462A88514620468DF807309DF80730F8
:101078001B0203F470631343A9F800302B8001F0BE
:10108800AFF80346414620468DF807309DF80730F3
:101098002B8001F0A5F88DF807009DF80730298806
:1010A8001B02B27803F4706301320B43B2702B80D9
:1010B8003B8003B0BDE8F08FC246C3464546BDE756
:1010C800C0030020E8850108008601080C86010895
:1010D800BC030020F4850108C0B20122A42101F05C
:1010E8004BB800BFC0B20022A42101F045B800BF30
:1010F800704700BFC0B20022A42101F03DB800BF74
:1011080010B5002382B00C46C0B201218DF807301B
:1011180001F066F88DF807009DF80730236002B0EB
:1011280010BD00BF2DE9F0411E4D82B000246D783E
:101138008DF807408D422ED909292FD81A4D1B4EFC
:101148001B4C15F8018016F801C0655CC4B26146F5
:101158001E461746204601F043F80346089A4146C2
:101168008DF8073020469DF807309B09136001F081
:1011780037F80346294620468DF807309DF8073092
:101188003B6001F02DF88DF807009DF80720120943
:1011980002F00402326002B0BDE8F0812546A046A4
:1011A800A446D3E7C0030020248601081886010856
:1011B80030860108012910B5C4B221D003293FD0D7
:1011C800204640F20332052100F0FCFE20460122B1
:1011D80040F2016100F0F6FE2046012240F2026171
:1011E80000F0F0FE2046002240F2046100F0EAFE22
:1011F8002046002240F2056100F0E4FE002010BD08
:1012080040F60C420521204600F0DCFE002240F2A8
:101218000161204600F0D6FE0022204640F202611D
:1012280000F0D0FE2046022240F2046100F0CAFE1F
:101238002046022240F2056100F0C4FE002010BDE5
:1012480040F60F720521204600F0BCFE012240F254
:101258000161204600F0B6FE0122DEE7B1F57A5FB3
:10126800C0B208B53CD011D94AF6444399421BD0C4
:101278001F4B99422DD045F2226399421BD08322FD
:101288004FF4047100F09EFE002008BDB1F5FA5F2E
:1012980018D042F611339942F1D113224FF4047158
:1012A80000F090FE002008BD73224FF4047100F096
:1012B80089FE002008BD43224FF4047100F082FE2D
:1012C800002008BD03224FF4047100F07BFE0020CB
:1012D80008BDA3224FF4047100F074FE002008BD7D
:1012E80033224FF4047100F06DFE002008BD00BFEA
:1012F800007701000022C0B208B5114600F062FE76
:1013080000230349034A18460B60136008BD00BF59
:10131800C8030020C403002000F052BE10B50446E4
:1013280000F0EAFD0021E0B200F082FE10BD00BF2F
:101338000A4B1B687BB100224FF4846110B5C4B21C
:10134800204600F03FFE2046002240F2224100F0F5
:1013580039FE002010BD0020704700BFC8030020E0
:101368000A4B1B687BB100224FF4846110B5C4B2EC
:10137800204600F027FE2046002240F2224100F0DD
:1013880021FE002010BD0020704700BFC8030020C8
:101398000C4B1B6810B5C4B26BB14FF400724FF41C
:1013A8008461204600F00EFE4FF4007240F22241A4
:1013B800204600F007FE20460122022100F002FE2E
:1013C800002010BDC803002070B51E4D2B680BB956
:1013D800002070BDC4B20E464FF400724FF4846111
:1013E800204600F0EFFD20464FF4007240F2224103
:1013F80000F0E8FD022EEBD020464FF400724FF4C7
:10140800846100F0DFFD20464FF4007240F2224173
:1014180000F0D8FD204600222D2100F0D3FD204603
:1014280000222E2100F0CEFD20460022052100F0EA
:10143800C9FD00222046114600F0C4FD002300200B
:101448002B6070BDC8030020134B1B688BB10129AA
:1014580010B5C4B20FD0204600224FF4846100F0CA
:10146800B1FD2046002240F2224100F0ABFD0020F1
:1014780010BD0020704720464FF400724FF484617D
:1014880000F0A0FD20464FF4007240F2224100F027
:1014980099FD002010BD00BFC803002038B5164BC9
:1014A8001B68E3B163291CD940F2EF14C5B2224688
:1014B8004FF48061284600F085FD2246284640F218
:1014C800014100F07FFD2246284640F2044100F029
:1014D80079FD2246284640F2054100F073FD0020C0
:1014E80038BDC1EB0111054B0C01A3FB04346409A1
:1014F80044F48074A4B2D9E7C40300201F85EB51DB
:1015080038B56429354B1B6827D923B3C4B20022E8
:101518004FF48461204600F055FD002240F222413C
:10152800204600F04FFD40F27F121C21204600F0BB
:1015380049FD40F27F121D21204600F043FD40F294
:101548007F122621204600F03DFD204640F27F1202
:10155800272100F037FD002038BD002BFBD0C1EB60
:1015680081131F4AC4B2A2FB03235B093F2BDDB2E0
:10157800CDD019B345F4A075204600224FF48461FC
:1015880000F020FD2046002240F2224100F01AFD22
:101598002A4620461C2100F015FD2A4620461D211A
:1015A80000F010FD2A462046262100F00BFD2046BB
:1015B8002A46272100F006FD002038BD20464FF4BA
:1015C80000724FF4846100F0FDFC20464FF4007275
:1015D80040F2224100F0F6FC002038BDC80300208C
:1015E8001F85EB51F8B564294E4B0C4606461B681F
:1015F80047D923B3C5B200224FF48461284600F0CE
:10160800E1FC002240F22241284600F0DBFC40F2D7
:101618007F121C21284600F0D5FC40F27F121D21C4
:10162800284600F0CFFC40F27F122621284600F021
:10163800C9FC284640F27F12272100F0C3FC3A4B30
:101648001B68E3B1632CF5B23AD940F2EF14224695
:101658004FF48061284600F0B5FC224640F2014173
:10166800284600F0AFFC224640F20441284600F02C
:10167800A9FC2246284640F2054100F0A3FC0020C0
:10168800F8BD002BDBD0C1EB8113284AC5B2A2FB01
:1016980003235B093F2BDFB2ADD0E1B94FF40072F1
:1016A8004FF48461284600F08DFC4FF4007240F23C
:1016B8002241284600F086FC1B4B1B68002BDED01D
:1016C800C4EB0414194B2401A3FB0434640944F447
:1016D8008074A4B2BBE747F4A07700224FF484617A
:1016E800284600F06FFC002240F22241284600F014
:1016F80069FC3A461C21284600F064FC3A461D2144
:10170800284600F05FFC3A462621284600F05AFC9D
:101718003A462846272100F055FC034B1B68002B4E
:1017280090D1ACE7C8030020C40300201F85EB510B
:101738002DE9F04FC4B283B09B4601F47F45804643
:101748000192CEB20C9F00F0D7FB204603224FF443
:10175800817100F037FC2046002240F6170100F0A6
:1017680031FC204600224FF4817100F02BFC20460A
:101778006C22392100F026FC002D00F0D4801322C1
:101788000121204600F01EFC322000F08FFCAE4BF9
:10179800002E00F0D4804FF0010A022EC3F800A0FA
:1017A80005D0032E00F07D82564500F0098240F2F4
:1017B800033205212046DFF8989200F003FC5246D8
:1017C80040F20161204600F0FDFB524640F2026102
:1017D800204600F0F7FB002240F20461204600F0AA
:1017E800F1FB002240F20561204600F0EBFB002DE2
:1017F80000F0AB800123B5F5007FC9F8003000F098
:10180800BD8240F23982B5F5407F00F0AC81B5F574
:10181800006F40F0B08240F63C72042120464FF041
:10182800000A00F0CFFBDB224FF48A61204600F06B
:10183800C9FBDB224FF48861204600F0C3FB46F267
:10184800A0320221204600F0BDFB022240F20661D0
:10185800204600F0B7FB022240F20761204600F064
:10186800B1FB02224FF4C161204600F0ABFB02221B
:1018780040F20961204600F0A5FB0D224FF4E0611B
:10188800204600F09FFB45F222639F4264D1432229
:101898004FF40471204600F095FBB5F5006F40F059
:1018A8008E8044F218024FF44071204600F08AFB03
:1018B800002240F20231204600F084FB0A224FF455
:1018C8000271204600F07EFB01224FF40071204691
:1018D80000F078FB002E40F0F7811322012120460A
:1018E80000F070FB02224FF4C461204600F06AFB4E
:1018F8004FF4C0524FF48261204600F063FB4FF46E
:10190800C05240F21141204600F05CFBD9F800308B
:10191800002B40F08A8159464046FFF7F1FD5046BA
:1019280003B0BDE8F08F03220121204600F04AFBF6
:10193800322000F0BBFB444B002E7FF42CAF1E601E
:10194800DFF80C91002D7FF455AFAA46C9F8005076
:1019580045F222639F429AD014D94AF644439F42E3
:1019680000F0D58140F292814BF680339F421CD023
:10197800364B9F4219D1A3224FF40471204600F040
:1019880021FB18E042F611339F4200F0C781B7F5FA
:101998007A5F00F0E180B7F5FA5F06D103224FF4D1
:1019A8000471204600F00EFB05E083224FF4047119
:1019B800204600F007FBB5F5006F3FF472AF44F224
:1019C80010024FF44071204600F0FCFA002240F269
:1019D8000231204600F0F6FA0A224FF4027120463E
:1019E80000F0F0FA01224FF40071204600F0EAFA04
:1019F80086BB13221DB9504603B0BDE8F08FB5F57C
:101A0800807F00F0FC80B5F5007F00F0F880B5F528
:101A1800006F3FF463AFB5F5407F03D0B5F5806F35
:101A28007FF474AF20460B22182100F0CBFA204631
:101A38000B221A2100F0C6FA4FF4C0524FF482610B
:101A4800204600F0BFFA61E7C803002000770100D4
:101A5800C40300204FF440720321204600F0B2FA7C
:101A680000222221204600F0ADFA00222321204640
:101A780000F0A8FA4FF440723621204600F0A2FA8E
:101A880043F203020121204600F09CFA052251216D
:101A9800204600F097FA43F203320121204600F075
:101AA80091FA22226021204600F08CFA49F625722C
:101AB8004C21204600F086FA0F2000F0F7FA0122A8
:101AC8002D21204600F07EFA01222E21204600F02A
:101AD80079FA4FF44C720321204600F073FA33224E
:101AE8005421204600F06EFAFA2000F0DFFAEE22C8
:101AF8006021204600F066FAC0224FF4C2612046F9
:101B080000F060FAC02240F21161204600F05AFA53
:101B180000224FF48461204600F054FAC02240F2BB
:101B28001261204600F04EFAC02240F213612046AE
:101B380000F048FA002240F22241204600F042FA22
:101B4800D9F80030002B40F0F08059464046FFF7A6
:101B5800D7FC43F213324DE733224FF40471204689
:101B680000F030FA27E71122282120464FF0000A1A
:101B780000F028FA35222921204600F023FA3522E0
:101B88002A21204600F01EFA40F2033204212046A2
:101B980000F018FADB224FF48861204600F012FAB0
:101BA80046F250320221204600F00CFA022240F29E
:101BB8000661204600F006FA022240F2076159E663
:101BC80040F60C420521204600F0FCF9002240F2C4
:101BD8000161204600F0F6F90022204640F2026139
:101BE80000F0F0F92046022240F2046100F0EAF920
:101BF800022240F20561204600F0E4F9A0E6012146
:101C0800204600F0DFF902224FF4C461204600F0BC
:101C1800D9F94FF4605240F21141204600F0D2F950
:101C2800D9F80030002B3FF476AE019B632B00F20D
:101C3800CC80C3EB0315774F2D01A7FB05356D0944
:101C480045F48075ADB22A4620464FF4806100F015
:101C5800B9F92A46204640F2014100F0B3F92A4674
:101C6800204640F2044100F0ADF92A46204640F2F1
:101C7800054100F0A7F94EE6B5F5807F7BD14FF41A
:101C88004372042120464FF0000A81E7B7F5FA4F66
:101C98007FF48BAE63224FF40471204600F092F972
:101CA80089E6B5F5006F40F60F724FF00501204642
:101CB80000F0918000F086F9524640F2016120461A
:101CC80000F080F9524688E720464FF4407203211D
:101CD80000F078F920460022222100F073F920460E
:101CE8000022232100F06EF920464FF4407236217D
:101CF80000F068F9204643F20302012100F062F97E
:101D080040F205225121204600F05CF9C3E6732217
:101D18004FF40471204600F055F94CE613224FF4B5
:101D28000471204600F04EF945E6019B632B4FD81D
:101D3800C3EB0316374B3601A3FB0636760946F488
:101D48008076B6B2324620464FF4806100F03AF908
:101D58003246204640F2014100F034F9324620462E
:101D680040F2044100F02EF9324640F20541204687
:101D780000F028F9E9E64FF0010AE9E520464FF4BA
:101D8800436204214FF0000A00F01CF92046DB22D0
:101D98004FF48A6100F016F920464FF4C042022140
:101DA80000F010F9204602224FF4C16100F00AF950
:101DB8002046022240F2096100F004F90E224FF495
:101DC800E061204600F0FEF8C2E540F2EF153AE780
:101DD80040F2EF16B6E700F0F5F8324640F201613E
:101DE800204600F0EFF8324640F20261204600F04B
:101DF800E9F8DFF82490324640F20461204600F00A
:101E0800E1F8324640F20561204600F0DBF8C9F8F7
:101E180000A000E51F85EB51C4030020F0B5214C5C
:101E2800802089B01222236B00251F4E022703430E
:101E380003A92363236B04920422034003903046D2
:101E480005950193019BCDE9067201F0C3FB4FF4A0
:101E5800807303A93046039301F0BCFB236C2A4628
:101E68000F21482043F400032364236C03F4000388
:101E78000293029B236A43F400032362236A23F438
:101E88000003236200F064FF482000F097FF2A4611
:101E98000F21492000F05CFF492000F08FFF09B0B6
:101EA800F0BD00BF00380240001C024000B170477E
:101EB8000F4B1A6B42F4807270B51A6386B01B6BB5
:101EC80004460120022503F48073032601A9019525
:101ED8000093009B0496CDE90200064801F07AFBC6
:101EE80022462946034801F057FD06B070BD00BFE1
:101EF8000038024000200240F0B52C4C89B0204642
:101F080002F0F2F800284ED1294E8027294B0546C9
:101F18004FF0010C03A92360336BA06043F08003EA
:101F2800C4E904003363336BE0613B4020620590F1
:101F380012200193204B019A022263600423C4F803
:101F48000CC006920793CDE903701C4801F042FBD0
:101F58004FF4807303A91948039301F03BFB336CDA
:101F68002A460F21482043F400033364336C03F4FA
:101F780000030293029B336A43F400033362336A1B
:101F880023F40003336200F0E3FE482000F016FF5C
:101F98002A460F21492000F0DBFE492000F00EFF01
:101FA800204601F0C3FD09B0F0BD00BFCC030020FE
:101FB80000380240005C004032279140001C02407B
:101FC800704700BF70B586B055BA164C4FF47A7694
:101FD80006AB0A460146204623F8025D0225009317
:101FE80002962B46019501F00FFE08B906B070BDA8
:101FF800204601F0EFFD204602F076F80028F5D1E2
:1020080009490123094AA060E360C4E90400C4E95E
:102018000700C4E90012FFF701FF204601F086FD22
:1020280006B070BDCC030020005C00403227914010
:1020380070B586B000251A4C4FF47A7606AB0A467E
:102048000146204623F8025D0225009302962B469E
:10205800019501F00DFF28B9BDF8160040BA80B20D
:1020680006B070BD204601F0B5FD204602F03CF8F0
:102078000028F1D10B4901230B4AA060E360C4E9B1
:102088000400C4E90700C4E90012FFF7C7FE2046B0
:1020980001F04CFDBDF8160040BA80B206B070BD24
:1020A800CC030020005C00403227914000F02ABE9B
:1020B800F0B52C4C89B0204602F016F800284ED115
:1020C800294E8027294B05464FF0010C03A92360B0
:1020D800336BA06043F08003C4E904003363336BBF
:1020E800E0613B402062059012200293204B029A47
:1020F800022263600423C4F80CC006920793CDE95A
:1021080003701C4801F066FA4FF4807303A919485C
:10211800039301F05FFA336C2A460F21482043F4F9
:1021280000033364336C03F400030193019B336AA7
:1021380043F400033362336A23F40003336200F08C
:1021480007FE482000F03AFE2A460F21492000F0F9
:10215800FFFD492000F032FE204601F0E7FC09B0FF
:10216800F0BD00BFCC03002000380240005C0040F6
:1021780032279140001C024070B586B00125154CED
:102188004FF47A7606AB03F8012D0A460093014610
:102198000296204601952B4601F036FD08B906B097
:1021A80070BD204601F016FD204601F09DFF002875
:1021B800F5D1094A094BC4E90205C4E90400C4E998
:1021C8000700C4E90023FFF729FE204601F0AEFC12
:1021D80006B070BDCC030020005C0040322791405F
:1021E800F0B587B001250027174C06AB4FF47A7677
:1021F8000A46014603F8017D204600932B460296C5
:10220800019501F035FE18B99DF8170007B0F0BD2B
:10221800204601F0DFFC204601F066FF0028F3D1DC
:102228000A4A0B4BC4E90205C4E90400C4E90700E3
:10223800C4E90023FFF7F2FD204601F077FC9DF882
:10224800170007B0F0BD00BFCC030020005C0040C1
:102258003227914000F056BD2DE9F04F334C85B040
:10226800334D0026D4F800E001274FF4803A2C6063
:102278002EF4803E402368604FF4005CC4F800E010
:102288004FF0200B4FF480294FF00408EA612846EC
:1022980003928022274C296602916A632B6401937A
:1022A8002E63AE63AE60EE64EF63AF61C5F8509025
:1022B800C5F85C80C5E904C6C5E91566C5E911BA63
:1022C80003F038FBDFF870C0039A802302994FF0BF
:1022D800030EE2612046DCF80020636322F48032BA
:1022E800019BC4F800C066612663CCF80020216613
:1022F800A7602661A761C4F804E0C4E9103BC4E9FB
:102308000E67C4E912A6C4E91496C4E9166803F076
:1023180011FB296822680B6843EA0A030B601368FB
:1023280043EA0A03136005B0BDE8F08F045C01407E
:102338009C04002018040020245C014038B50C4B94
:1023480005460C4634201B682946A2B2DB6898472C
:1023580060B9B4F5003F2946064834BFC4F34F02BC
:102368004FF6FF7203F03EFC002038BD012038BD57
:1023780064C701209C04002010B5084C226813682B
:1023880023F4803313602066204603F0D3FA2268D2
:10239800136843F48033136010BD00BF9C04002011
:1023A800704700BF08B5FFF7FBFF08BD704700BFC7
:1023B80008B5FFF7FBFF08BD704700BF2DE9F047E0
:1023C8004B4C8AB080224FF00208636C002503262C
:1023D8000A2743F40003824605A9464863644FF080
:1023E8004009636C03F400030093009B236B43F4E0
:1023F80080732363236B03F480730193019B236B26
:1024080043F480732363236B03F480730293029B6A
:10241800236B43F480732363236B059203F4807367
:102428000393039BCDE90685CDE9086701F0D2F84F
:10243800202305A92F480593CDE90685CDE908672E
:1024480001F0C8F805A92B48CDF81490CDE9068508
:10245800CDE9086701F0BEF8102305A925480593C2
:10246800CDE90685CDE9086701F0B4F8236BDAF801
:10247800001043F48003204A23639142236B03F442
:1024880080030493049B0AD000220E213C2000F014
:102498005FFC3C2000F092FC0AB0BDE8F087174CC6
:1024A8004FF400674FF400534FF480604FF0C06C56
:1024B800A6624FF4003104224FF480762061CAF8F6
:1024C8006C402046C4F80890E560C4F838A0C4F809
:1024D80004C06262C4E90573094BC4E90B55C4E939
:1024E8000761236000F006FE204600F067FDCBE799
:1024F8000038024000200240045C014080050020B2
:102508007064024030B5A3B00C464FF4801501A8A2
:1025180003F0F6F842F6113245F222639C4218BFE6
:1025280094420AD04AF644439C4206D04FF48004B1
:102538004FF4AC710722012305E04FF4800440F208
:10254800AD110222132301A801951194029104925E
:102558000A9302F035FE23B030BD00BF8AB20146AF
:10256800024808B503F0A6FB002008BD18040020A7
:1025780008B506F097F808BD08B506F0B3F808BD29
:1025880038B50B4803F0ACFC05460A4805F0EF05E2
:1025980003F0A6FC0446022D07D004F0DF04022C49
:1025A80000D038BD06F0BEF838BDFFF705FFF4E7E8
:1025B8009C040020180400202DE9F0413D4C8AB00D
:1025C8004FF002080A22636C00254FF48067064624
:1025D80043F4000305A938486364636C03F40003FB
:1025E8000193019B236B43F040032363236B099200
:1025F80003F040030597CDF818800293029BCDF8AD
:102608002080079500F0E6FF236B4FF4004205A9F0
:102618002A4843F080032363236B059203F0800369
:10262800CDF820800393039BCDE9065500F0D2FF37
:10263800236B316843F48003214A23639142236B5F
:1026480003F480030493049B12D000220F21462038
:1026580000F07EFB462000F0B1FB00220F2128206D
:1026680000F076FB282000F0A9FB0AB0BDE8F08155
:10267800144C4FF4006E4FF400534FF4807C4FF429
:1026880000310322346720466562A663A262C4E96A
:1026980005E30D4BC4E90155C4E90357C4E90B55DB
:1026A800C4E907C1236000F025FD204600F086FC40
:1026B800CBE700BF0038024000180240001C02406F
:1026C800245C014020050020B864024020F4807397
:1026D8002DE9F04FB3F5007F83B09DF834809DF865
:1026E800389003D0012003B0BDE8F08FDFF8C0A018
:1026F80004462A4E1546DAF800300F46C6F800A000
:10270800304623F48033DFF89CB0CAF8003003F079
:102718002FFA234B58461A68CBF8003022F480323F
:102728001A6003F025FA304600222946FFF7EAFE30
:102738003046C6F800A003F0D3FB20B3184B194865
:10274800CBF8003003F0CCFB10B3174E2A46052116
:102758000020FFF781FDB3683420984748F69413AA
:102768009842BFD1736B342098471048009544EACB
:10277800070106604B46424634683420A0470020D3
:1027880003B0BDE8F08F01463046FFF715FFD5E7E7
:1027980001460448FFF712FED7E700BF18040020DF
:1027A800045C01409C0400202800002064C701202C
:1027B800245C014070B50E4B0E4C0F4A18807020F7
:1027C80023681180984763687020984751280CD176
:1027D80070230A4E08210A4A0A4D18463370E368E6
:1027E8002C6011709847002070BD032070BD00BF99
:1027F800120600200000002014060020E00500203A
:10280800100600200C0600202DE9F04FDFF8E8A1A3
:1028180095B00024DFF8E481DAF80030054603902B
:1028280004941B6998F80000CDE90544984728707E
:10283800002800F091802B460DF144090EAD03F1FC
:1028480016069F1CDAF8003009EB4402294698F86E
:1028580000005B699847634B1B78012B00F092805E
:10286800990705D52A8808A9C2F5805221F81420AD
:102878005A0706D539F814200BA9C2F5805221F859
:1028880014201B0774D408AB33F814200BAB33F8AF
:102898001410554B4FEA840B544853F824E050F871
:1028A8000BC01FFA8EF372451FFA8CF08CBFD31A37
:1028B8009B1A61459BB28CBF081A401A80B2034428
:1028C800052B07DD484B8C46964643F80B20474BB3
:1028D80043F80B1098F8000070280BD0444B1A8866
:1028E800444B0EFB02F21988C2F30F320CFB01F1C4
:1028F800C1F30F31798105AB27F8022B06AA2146CF
:10290800009204AAFEF70EFC069BDDE9041206F805
:10291800011B7272032B06D8DFE803F0242127027B
:102928004FF000033371039B013402351B78A34237
:1029380088D814A9002498F8000041F8344DFEF70F
:10294800DFFB0798182839D026D810282CD014284F
:1029580039D038BB039B986215B0BDE8F08F0223CD
:102968003371E0E701233371DDE703233371DAE7DD
:102978000BAB298839F8142023F8141008AB23F876
:10298800142086E7298808A839F8142020F814109C
:102998000BA921F8142074E740280AD049281CD034
:1029A8001C2815D00120D7E70123039A20469362FB
:1029B800D2E70523039A20469362CDE70323039ABF
:1029C80020469362C8E70223039A20469362C3E72E
:1029D8000423039A20469362BEE70623039A2046FF
:1029E8009362B9E710060020E4050020F8050020EE
:1029F80012060020140600200C060020E005002026
:102A08002DE9F047DDF820E0C2F10F025FEA9E08E9
:102A180052B23BD000F1080703F10806C446BCF1E6
:102A2800010C06F1080657E9025407F108074FEAB6
:102A3800254A15FB01F54FEA244914FB01F401FB73
:102A48000AFA01FB09F945FA02F54AFA02FA44FAC8
:102A580002F449FA02F90AF30F0A05F30F050FFA0F
:102A68008AFA2DB209F30F09C5EA0A450FFA89F95E
:102A780046F8105C04F30F0424B2C4EA094446F88B
:102A88000C4CCCD14FEAC808404443441EF0030E16
:102A98001DD00488BEF1010F14FB01F444FA02F4BE
:102AA80004F30F041C8012D04488BEF1020F14FBFB
:102AB80001F444FA02F404F30F045C8007D0808820
:102AC80010FB01F141FA02F202F30F029A80BDE80D
:102AD800F08700BFB5EEC00ADFED1C7A60EE277AFA
:102AE800F1EE10FABDEEE77A04D517EE103A013B85
:102AF80007EE103AB8EEC77ADFED156A154A77EE99
:102B0800C77A67EEA67AF4EEE67AF1EE10FAA8BF75
:102B180077EEE67ABCEEE77A17EE103AB7EE007A6F
:102B2800C3F3080306EE903A02EB8301F8EE666AF7
:102B380091ED010A77EEE67AD1ED006A37EE677A11
:102B480027EE800AA7EE260A704700BF83F9223EC7
:102B5800000000443C86010800285FDDB0FA80F2DE
:102B6800113A92B270B412F001044AD0531E984040
:102B780000B207EE900A2C4B4610FAEEE87A17EEF0
:102B8800905AA3EB650307EE903AFEEEC97A17EE6A
:102B9800903A1BB203FB03F5ED1315FB06F5ED1395
:102BA800C5F5405503FB05F343F34F3323F0030307
:102BB80003FB03F5ED1315FB06F5ED13C5F54055BD
:102BC80003FB05F343F34F3323F0030303FB03F540
:102BD800ED1315FB06F5ED13C5F5405503FB05F39D
:102BE800DB139B0013FB00F343F38F3323F0010344
:102BF80054B942F34E02002013411BB270BC0B8043
:102C08007047904000B2B4E7501E48BF10464010CD
:102C1800034100201BB270BC0B80704700234FF0AB
:102C2800FF300B80704700BFDF59375F2DE9F04157
:102C38005FEA91088C46864615463BD000200EF187
:102C4800080647460346024656F8084CC4FBC42308
:102C580056F8044CC4FBC423013F104606F108068D
:102C6800F1D10EEBC80E1CF0030413D00246BEF9D6
:102C78000010C1FBC123012C10460BD0BEF9021075
:102C8800C1FBC123022C104604D0BEF90410C1FBBD
:102C9800C1231046194662460023FDF77FFFC00B8B
:102CA80040EA4140294600F30F00BDE8F04100B278
:102CB800FFF752BF40464346D5E700BF074A032007
:102CC80008B5136843F40073136000F02DF8002072
:102CD80005F00EFE05F028FD002008BD003C02406E
:102CE800034A044B11681B780B441360704700BFFC
:102CF8009CC7012060000020014B1868704700BF86
:102D08009CC7012038B50446FFF7F6FF0546631C4B
:102D180002D0044B1B781C44FFF7EEFF401BA04277
:102D2800FAD338BD6000002007490002074BCA6883
:102D380000F4E06010B44FF6FF0422405DF8044B45
:102D480013431843C860704700ED00E00000FA051F
:102D5800174BDB68C3F3022330B4C3F107051C1D0E
:102D6800042D28BF0425062C18D9033B4FF0FF3447
:102D78009C4022EA04044FF0FF32002802FA05F2D0
:102D880021EA020101FA03F242EA04024FEA0212BE
:102D9800D2B206DB074B1A5430BC704700242346D6
:102DA800E9E700F00F00044B1A5430BC704700BF2D
:102DB80000ED00E000E400E014ED00E000F01F0189
:102DC8000123034A40098B4042F82030704700BF76
:102DD80000E100E04309012200F01F00034920330D
:102DE80002FA00F041F82300704700BF00E100E05C
:102DF8000138B0F1807F0DD2074B0022072130B493
:102E0800F025064C5860104684F823509A601960E3
:102E180030BC70470120704710E000E000ED00E092
:102E2800BFF35F8F044A00200449536A23F48033B8
:102E380053624860704700BF00ED00E090ED00E08D
:102E4800064A40F00100064B5860536A43F4803349
:102E58005362BFF34F8FBFF36F8F704700ED00E0F1
:102E680090ED00E0124A43789360017811B9D1607F
:102E780011617047436870B4D360C37A047B1B0642
:102E8800857A867B43EA0473447B0B43017A43EAE1
:102E9800C543C57B43EA8443447A43EA464343EA4D
:102EA800054343EA042343EA410370BC13617047B6
:102EB80090ED00E0044A042813680CBF43F00403B3
:102EC80023F004031360704710E000E0704700BF70
:102ED80008B5FFF7FBFF08BD00283CD0437F70B55D
:102EE80003F0FF020446FBB10222237962771BBB81
:102EF80023681A4A5A619A6822F018029A6062791D
:102F080022BB4FF0FF321A619968012562690020DF
:102F180021F06001A669114399609A6822F0800245
:102F280032439A60657770BD027705F045FC02224E
:102F380023796277002BDBD0E2682046A16800F095
:102F48000FF830B962792368002ADAD022691A6149
:102F5800DAE7012070BD0120704700BFB71DC1042A
:102F680010B41F2302E013F1FF3314D321FA03F442
:102F7800E407F8D5102A1ED0182A16D0082A17D028
:102F8800046800206161A36823F018031A43A26053
:102F98005DF8044B7047102A03D0182A01D0082A7C
:102FA800EED101205DF8044B7047062BE8D9F8E70D
:102FB8000F2BE5D9F5E7072BE2D9F2E7F8B5044678
:102FC800FFF79AFE002C53D0022223680021054601
:102FD80084F835201A6884F8341022F001021A6047
:102FE80005E0FFF789FE401B05283AD823681A68D0
:102FF800D107F6D4D4E90120E16802431F68D4E977
:1030080004050A430243206AD4E906612A43354D80
:1030180032433D400A43616A0243042942EA0502F9
:1030280028D01A605A6922F007021143DAB22E4DED
:103038005961103A2D492E48A5FB02521940012525
:1030480013090022C05C032B4FF03F0388BF0431F3
:10305800E06583401046A1658B60626584F8355051
:10306800F8BD032320221846626584F83530F8BD80
:103078000120F8BDD4E90B51A76A45EA010047F0E1
:10308800040102431A605A6922F007021143002D15
:10309800CCD07EB1B6F5005F16D0022F03D9032F2E
:1030A800C4D1EA01C2D5012340221846626584F8DA
:1030B8003530F8BD012F03D0F3D3022FB6D1F0E796
:1030C800B5F1C07FB2D1EEE7032FAFD801A252F815
:1030D80027F000BFAF300008AB300008AF30000861
:1030E800C93000083F8010F0ABAAAAAA00FCFFFF75
:1030F800408E0108002835D0034690F83500C0B24C
:10310800022831D01A680020D1B270B4103914687E
:10311800164D212624F00104A5FB0151144D14601D
:103128000909144C106014406D5C03294FF03F01ED
:10313800506088BF04349060A940D0601061566127
:103148000022DD659C651046A1605A6583F834202D
:1031580083F83520C3E90F22C3E91122C3E91322FA
:1031680070BC704701207047704700BFABAAAAAA7D
:10317800408E010800FCFFFFF0B490F83440012CA9
:1031880038D0012590F83540866DAC4280F834502F
:1031980029D104680227002580F8357045658768BD
:1031A8002568402F25F480252560636026D0A1601E
:1031B800E260C16D3F23026C8B40B360236843F02B
:1031C80016032360636943F0800363611AB12368BF
:1031D80043F0080323602268002342F001021846E6
:1031E8002260F0BC70470022022380F83420184681
:1031F800F0BC70470223F0BC18467047A260E1603B
:10320800D7E700BFF0B5044683B00020082266491E
:1032180001900E68D4E916739A403D682A4203D09B
:1032280021680868400759D401229A402A4203D0ED
:1032380021684969080674D404229A402A4203D0B6
:1032480021680968890766D410229A402A4203D067
:103258002168086800074BD420229A402A4214D0DB
:1032680021680868C00610D5BA6094F83520052A88
:1032780063D00B6813F4802F0B687ED0190340F1DC
:103288008980E36B0BB120469847636D23B3636D68
:10329800DA071AD522680521444B84F83510A3FBB8
:1032A8000636136823F00103B60A136002E01368B8
:1032B800DB0704D5019B0133B3420193F7D9002200
:1032C800012384F8342084F83530E36C23B1204698
:1032D80003B0BDE8F040184703B0F0BD086820F01F
:1032E80004000860BA60626D42F0010262659BE703
:1032F800BA600A6812F4802F0A6818D1D20503D47C
:103308000A6822F008020A60226C002AA4D020462B
:103318009047E36DA0E7BA60626D42F0040262650F
:1033280092E7BA60626D42F00202626584E71103B7
:10333800EAD5A26C002AEAD18EE70A68206C22F04E
:1033480016020A604A6922F080024A6138B30A68A4
:1033580022F008020A603F220020012102FA03F34A
:10336800226DBB6084F8340084F83510002AB3D08D
:10337800204603B0BDE8F040104713F4807380D1B5
:103388000A68012022F010020A6084F8343084F8B8
:10339800350076E7636C002B7FF475AF75E7A26C98
:1033A800002AD4D1D7E700BF68000020B5814E1BA2
:1033B80040B3F8B590F83930044603F0FF02E3B1A2
:1033C8000222A7680025012684F839202846D4E976
:1033D80000311A6822F440320A431A60596B0A4ACB
:1033E80021F0070139435963196C0A40E1680A431F
:1033F8001A64E56384F83960F8BD80F8382003F072
:103408000BFEDDE70120704700C0FFFF704700BFDB
:10341800704700BFF8B5036804465D681E68E90791
:1034280017D5F20515D51A684FF0010E4FF0040CA8
:10343800002722F4807241691A60C26B42EA0E02C8
:10344800C263C3F808E080F839C080F8387001B169
:103458008847AF0616D5B00414D523682020042168
:103468001A6822F400521A6000229860E36B84F80C
:10347800382043F002036269E36384F839100AB123
:1034880020469047290715D5320513D5236808200B
:1034980004211A6822F400621A6000229860E36B23
:1034A80084F838200B436269E36384F839100AB161
:1034B800204690476B0701D577052ED4A80714D569
:1034C800B10512D523680227012100201A6822F4C9
:1034D80000721A609F602369E26B84F83800E26327
:1034E80084F839100BB120469847EA0601D5F30451
:1034F80000D4F8BD23681026012100251A6820464B
:1035080022F480521A609E60E36B84F83850E363BB
:1035180084F83910FFF77CFFF8BD236804212046A2
:103528001A6822F480621A609960FFF76FFFC5E796
:1035380090F83820012A49D0034600EB0110F0B476
:10354800D0E9072501270224A2F1090642EA05422B
:1035580083F83870BE42456A83F839401C681AD926
:1035680042EA056279B1E5691949806929400A4347
:10357800E261206100220121104683F8391083F8A6
:103588003820F0BC7047656A1149986929400A4398
:103598006262A061EEE705F07F46324351B1E66909
:1035A80025F07F450A49806931400A43E26120617C
:1035B8002562DFE7656A0649586A29409D6920F057
:1035C8007F400A436262A561A062D3E70220704788
:1035D800F0FFFC002DE9F04FDFF82CC283B08E46D7
:1035E8000025DFF82892D1F8008003E00135102D7E
:1035F80000F0B6800123AB4008EA03018B42F5D105
:10360800DEF8044024F01007022F40F0AC80EF08E9
:1036180005F0070A4FF00F0BDEF8102000EB8707C4
:103628004FEA8A0A3E6A0BFA0AFB02FA0AF24FEAE2
:10363800450A26EA0B064FF0030B32430BFA0AFB46
:1036480004F003063A626FEA0B02076806FA0AF604
:1036580017403E4306608668C4F3001706EA020B6B
:10366800DEF80C60AF4006FA0AF646EA0B068660FA
:10367800466826EA03031F434760C668E700DEF88A
:10368800083002EA060203FA0AF343EA0203C360B7
:10369800ACD5D9F8446025F0030705F003030F22E1
:1036A80046F4804607F180479B00C9F8446007F557
:1036B8009C37D9F8446002FA03FA06F4804601966A
:1036C800484E019AB042BA6822EA0A0220D006F5AA
:1036D8008066B0425ED0444EB04260D0434EB042A5
:1036E80062D0434EB04264D0424EB0426BD0424E9C
:1036F800B0426DD0414EB04260D0414EB0426CD025
:10370800404EB0420CBF09260A2606FA03F31A43B4
:10371800BA60E603DCF800306FEA010205F1010542
:1037280054BF13400B43A703CCF80030DCF8043037
:1037380054BF13400B43E602CCF80430DCF80830E1
:1037480054BF13400B43A402CCF80830DCF80C300B
:1037580054BF13400B43102DCCF80C307FF44AAF04
:1037680003B0BDE8F08F4FEA450A0322D0F800B055
:10377800013F04EA020602FA0AF2012F6FEA020286
:1037880006FA0AF602EA0B0B46EA0B0606603FF653
:1037980074AF60E7012606FA03F31A43B8E7022676
:1037A80006FA03F31A43B3E7032606FA03F31A43A8
:1037B800AEE7042606FA03F31A43A9E7072606FA32
:1037C80003F31A43A4E7052606FA03F31A439FE70F
:1037D800062606FA03F31A439AE7082606FA03F3BD
:1037E8001A4395E70000024000080240000C02401E
:1037F800001002400014024000180240001C024061
:103808000020024000240240003C014000380240F1
:103818002DE9F04F0025DFF87CB103E00135102DCC
:1038280000F081804FF0010C0CFA05F333EA010235
:10383800F4D14FF0030805FA0CF2076805F0070405
:1038480008FA02F225FA08F64FF00F09A400D2434D
:1038580000EB860609FA04F4DB43174025F0030E53
:1038680007600EF1804ED6F820A005EA08070EF58D
:103878009C3E2AEA0404BF00346209FA07F4866809
:103888001640866046681E404660C6683240384E1C
:10389800C260B042DEF8082002EA040245D006F50C
:1038A8008066B04246D0334EB04246D0324EB04227
:1038B80047D0324EB04247D0314EB04248D0314E58
:1038C800B04249D0304EB0424AD0304EB0424BD0D0
:1038D8002F4EB0420CBF09260A2606FA07F7BA424D
:1038E8009CD1DEF80820013522EA0404102DCEF818
:1038F8000840DBF8002002EA0302CBF80020DBF8DE
:10390800042002EA0302CBF80420DBF8082002EACC
:103918000302CBF80820DBF80C2003EA0203CBF8FB
:103928000C307FF47FAFBDE8F08F0027BA427FF4F8
:1039380075AFD6E70CFA07F7F8E7022606FA07F795
:10394800F4E708FA07F7F1E7042606FA07F7EDE7C0
:10395800052606FA07F7E9E7062606FA07F7E5E770
:10396800072606FA07F7E1E7082606FA07F7DDE76C
:103978000000024000080240000C02400010024013
:103988000014024000180240001C024000200240BF
:1039980000240240003C014002B9090481617047DB
:1039A800F8B504460D4616466F1C23682AD19A6955
:1039B800900725D49A69D106F9D59A699506FCD558
:1039C80010212022D961DA619A69910701D5002274
:1039D8009A629A69D20703D49A6942F001029A61FD
:1039E8005A6800211E4F0426202501203A405A60BB
:1039F800666484F8401084F8415084F84210F8BD99
:103A08000020F8BD9A699207FAD49A69D70619D4A2
:103A180025B1FFF771F9801BA842C5D9636C202135
:103A2800002203200B4384F84020636484F841108B
:103A380084F84220F8BD4DB1FFF75EF9801B85423E
:103A480004D323689A699006F5D5B9E700232022A4
:103A5800012084F8412084F8403084F84230F8BDD1
:103A680000E800FEF8B5044616460D4629B93BE0C5
:103A7800FFF742F9801B85423DD323689A69920675
:103A880046D49A69D706F3D5691C22D19A69920659
:103A9800FCD520221021D961DA619A69900701D5F5
:103AA80000229A629A69D10703D49A6942F0010206
:103AB8009A615A6800211C4F0426202501203A40AB
:103AC8005A60666484F8401084F8415084F84210C3
:103AD800F8BD9A699706DCD4E5B1FFF70DF9801BAC
:103AE800854217D32368CFE703689A6992060FD4F3
:103AF8009A69D006C8D4636C2021002203200B43A6
:103B080084F84020636484F8411084F84220F8BDAA
:103B18000020F8BD00232022012084F8412084F8E9
:103B2800403084F84230F8BD00E800FE00284DD04F
:103B3800F8B590F84130044603F0FF02002B40D05E
:103B48002421E568D4E9003284F84110012D186871
:103B580022F07061A26820F001001860196199686C
:103B680021F40041996028D042F40442022D9A6061
:103B780002D14FF400625A605A6800211448202785
:103B8800A6691043D4E9042558602A43D868E56932
:103B980042EA0622266A20F400403543D8600846E7
:103BA800DA601D601A6842F001021A60616484F8E4
:103BB8004170216384F84210F8BD42F400429A60D3
:103BC800DAE780F8402004F00DFEB9E701207047DD
:103BD80000800002B0B10268242310B580F841309B
:103BE8000446136823F00103136004F025FE002344
:103BF8006364184684F8413084F84030236384F8BD
:103C0800423010BD012070472DE9F84390F841403B
:103C1800BDF82490202C40F09980089C002C00F0DE
:103C28009880B9F1000F00F0948090F84040012C82
:103C380000F08C801F46012390460E4680F84030E5
:103C48000446FFF759F8054605E0FFF755F8401B0D
:103C5800192800F281802368986910F40040F4D193
:103C6800212140225FFA87FCC6F3090684F8411037
:103C78007A4984F842202A46606441EA0C4CA4F848
:103C88002A90DFF8E8E14CEA060CD3F8049008998A
:103C980009EA0E0E6063616220464CEA0E0C0A992E
:103CA800C3F804C0FFF77CFE002860D1012F20680C
:103CB80068D15FFA88F20A9B8262013340F09480EF
:103CC80083691F06FCD5638DFF2B40F29B804368F8
:103CD800FF21634F634A3B402185324313434360CE
:103CE800604FDFF87C81374304E0638D9BB2002B83
:103CF80000F096802A460A992046FFF751FE0028D0
:103D08006DD1626A2168501C238D6062013B127874
:103D18009BB28A62628D2385013A92B26285002B3A
:103D2800E3D1638D9BB2002BDFD00A9B013339D1DD
:103D38008B691A06FCD5638DFF2B41D94B68FF228E
:103D480003EA080322853B434B60CEE70220BDE827
:103D5800F8830120BDE8F88300232022032084F89B
:103D6800412084F8403084F84230BDE8F883636C21
:103D7800636C042B4FF000030CBF0120032084F870
:103D88004030E4E74FEA18232A460A99836220461E
:103D9800FFF706FE0028EAD15FFA88F320688362FD
:103DA8000A9B8AE78B691B06C5D40A9B002BD3D0D4
:103DB800FEF7A2FF0A9B401B8342CDD32168B5E7DB
:103DC800628D46F00073486892B200EA08005FFA14
:103DD80082FC228543EA0C4303434B6085E7636C0E
:103DE800042BB6D00320B2E7836919063FF56BAF01
:103DF8000A9B53B3FEF780FF0A9B401B834224D3E0
:103E080020685AE7628D46F00073416892B2144FF9
:103E18003940D7B2228543EA07430B4343605FE743
:103E28002A460A992046FFF71DFE0028D7D12368A5
:103E380020210D4DD9615A682A405A6084F84110F2
:103E480084F8400084F8420081E70023202284F8A7
:103E5800403084F8412084F8423089E7002000810E
:103E6800009C00FC0000FF0100E800FE009800FC38
:103E78002DE9F04790F84140BDF824A0202C0A9D78
:103E880040F08480089C002C00F08380BAF1000F79
:103E98007FD090F84040012C78D098460123914675
:103EA8000F4680F840300446FEF726FF064604E039
:103EB800FEF722FF801B192877D82368986910F429
:103EC8000040F5D1222140225FFA88FCC7F3090798
:103ED80084F841107D4984F842203246606441EA02
:103EE8000C4CA4F82AA0DFF8F4E14CEA070CD3F84C
:103EF80004A008990AEA0E0E6063616220464CEA43
:103F08000E0C2946C3F804C0FFF74AFD002857D114
:103F1800B8F1010F206870D15FFA89F38362691CD8
:103F280040F0948083695A06FCD5638DFF2B40F2DC
:103F380099804368FF21DFF8A4C1654A03EA0C03AE
:103F480021853A4313434360DFF89481DFF8949165
:103F580047EA0808691C5FD183695A07FCD5636A78
:103F6800426A591C61621A70238D628D013B013AC5
:103F78009BB292B22385628513B9638D9BB253BB02
:103F8800638D9BB2002B7ED02068E3E70220BDE85A
:103F9800F0870120BDE8F08793691B0621D425B17D
:103FA800FEF7AAFE801B854215D20023202203209B
:103FB80084F8412084F8403084F84230BDE8F08726
:103FC800636C636C042B4FF000030CBF01200320CB
:103FD80084F84030DBE7681C2268DDD19369190654
:103FE800FCD5638DFF2B22D95368FF2103EA09030F
:103FF800218543EA08035360C2E74FEA1923324692
:10400800294683622046FFF7CBFC0028D8D15FFA07
:1040180089F32068836282E783695B079FD4002D58
:10402800C3D0FEF769FE801B8542ADD2BDE7618D26
:1040380047F00073506889B200EA09005FFA81FC12
:10404800218543EA0C430343536099E783695B0680
:104058003FF56BAF8DB3FEF74FFE801B85422CD327
:1040680020685CE7628D1B4B92B241683B43DFF8E6
:104078006CE05FFA82FC228501EA0E0243EA0C43F7
:104088001343436060E7324629462046FFF7EAFCBF
:1040980028B1636C042B3FF47CAF032077E72368D7
:1040A80020210D4DD9615A682A405A6084F8411080
:1040B80084F8400084F8420069E70023202284F84D
:1040C800403084F8412084F842307AE700200080AC
:1040D8000024FF810024008200E800FE009800FC14
:1040E8000000FF01009C00FC90F84100704700BFF1
:1040F80090F84130DBB2202B70B41FD190F84020EB
:10410800012A1BD002682424002680F84140156843
:10411800344625F001051560156825F480551560AD
:10412800156829431160116841F00101116080F898
:10413800406080F84130204670BC70470224204619
:1041480070BC704790F84130DBB2202B70B41ED1A0
:1041580090F84020012A1AD002682424002680F80A
:1041680041401468354624F001041460146824F4AE
:10417800706444EA01211160116841F00101116085
:1041880080F8406080F84130284670BC70470225AE
:10419800284670BC704700BF002871D0F8B590F869
:1041A800A130044603F0FF02002B64D0A06802256A
:1041B800E668002184F8A15025696769D4F818C019
:1041C800D4E9003202439869324320F070402D4E02
:1041D80098612A439869012502439A619A68324096
:1041E8009A60986840EA0740E76940EA0C00D4F80A
:1041F80020C09860D8683040D860DA6842EA074240
:10420800676A42EA0C02D4F828C0DA601A693240B8
:104218001A61186940EA0740E76A40EA0C00186129
:10422800586906405E615A69206B42EA07420243B8
:104238005A61D86A94F8357000F07F4094F8366077
:10424800D862D86A94F834200243084642EA072222
:1042580042EA0642DA625A6B42F004025A635A6B27
:1042680042F002025A639A692A439A61C4F8A41078
:1042780084F8A150F8BD80F8A02002F0C3FD95E7AE
:104288000120704700F800F010B5044602F024FE43
:104298000023C4F8A430184684F8A13084F8A0306C
:1042A80010BD00BF704700BF704700BF03689A6B1E
:1042B80070B55507044602D59A6B510722D49A6BFC
:1042C800920702D59A6B960731D49A6BD50702D517
:1042D8009A6BD00741D49A6B110702D59A6B1207D3
:1042E80000D470BD5A6B08260125002122F008026F
:1042F80020465A63DE6384F8A15084F8A010FFF7C3
:10430800D3FF70BD5A6B0421002522F004025A63C2
:10431800D963D0F8A43080F8A05043F00103C0F866
:10432800A43080F8A110FFF7BDFF2368C7E75A6BD8
:1043380002260421002522F0020220465A63DE6389
:10434800D4F8A43084F8A0503343C4F8A43084F8D7
:10435800A110FFF7A7FF2368B7E75A6B01210025D3
:10436800204622F001025A63D96384F8A11084F828
:10437800A05003F097FA2368ADE700BF90F8A0308B
:10438800012B00F0B9804FEAC21C02232DE9F04F3F
:104398000CF1840C06684FF034080D4606EB0C044B
:1043A80080F8A13008FB02028946F1680746636875
:1043B80002F138084FF00102C1F30B4A03F4704EC2
:1043C80080F8A020B9E80F00A8E80F00B9E80F00AE
:1043D800A8E80F00B9E80F00A8E80F00D9F80030E6
:1043E8004848C8F800306B68C4F804E0D5F800E025
:1043F8009A44F1680EF10108D5F80C90C1F30B410D
:10440800AA684144D5F81080013241EA0A41D5F83A
:1044180018A06160F168D4F808B0C1F30A010BF480
:10442800704B4944D5F81490C4F808B0D6F80CB0CD
:10443800CBF30A0B5A4442EA0142A260226922F0F5
:1044480007022261C4F81080A269002295F8311091
:1044580095F832B0A26195F8302042EA0A6242EA41
:104468000122296A42EA0B4AEA69C4F818A01143F2
:10447800626922F0FF026261C4F81490E269104098
:10448800E061E161A26A0022A2626A6AA262B8F1EE
:10449800000F0BD0B8F1010F30D0A8F10202022AA8
:1044A80002D9B8F1070F2BD1022200E00422A3EBB6
:1044B8000E03D5E90A1E02FB03F3012501FB02F2F4
:1044C800E16A033301F0E02143EA02430E4AE16264
:1044D8000021E362236B08461A402263C4F830E0E7
:1044E80056F80C302B4346F80C30756287F8A1500B
:1044F80087F8A010BDE8F08F022070470322D6E7A6
:104508000122D4E7F8F8FFFF00F8FFFF034690F810
:10451800A000012818D0022070B41E68012583F875
:10452800A100002406EBC212D2F8900000F07F40F0
:10453800C2F890002046C2F89010756283F8A15026
:1045480083F8A04070BC70470220704770B490F8A0
:10455800A040012C36D00125022480F8A05080F814
:10456800A140AAB13426DC01056806FB03038434A4
:104578009B6C2544062B15D00439002451F8043FC0
:1045880023F07F4343EA0463013494422B64F5D15A
:104598000122002380F8A1201A4680F8A030104696
:1045A80070BC704700240439264651F8043F013690
:1045B80023F07F43B24243EA040304F188542B6496
:1045C800F3D1E5E7022270BC1046704790F8A020AE
:1045D800012A14D00346C90102201A68843170B434
:1045E80083F8A10001265458002504432846545056
:1045F800566283F8A16083F8A05070BC704702200F
:10460800704700BF90F8A020012A15D00346C901C1
:1046180002201A68843170B483F8A1000126545826
:10462800002524F0020428465450566283F8A160FD
:1046380083F8A05070BC7047022070472DE9F04FF6
:1046480090F8A040012C00F0AB804FEAC31C07682B
:10465800342502260CF1840C934605FB03054FF024
:10466800000E07EB0C0480F8A160D7F80CA06A6E66
:10467800D4F80480CAF30B4A2E6E0BEB0209A96327
:104688000E4408F47041C5F84490D5F83880B24417
:10469800C5E90F6B616008F1010BFA68296CC2F378
:1046A8000B4201315A4442EA0A42D5F850A06260EE
:1046B800D7F80CB0A268CBF30A0B02F47042D944C5
:1046C800A260FA68C2F30A0B95F86820594442EAD6
:1046D8000A6295F869A041EA094995F86AB0A96C97
:1046E80042EA0A22C4F80890D4F810A042EA0B4221
:1046F800DFF8C0902AF0070AC4F810A02161D4F8A6
:1047080018A0C4F818E0A261626922F0FF02626191
:10471800EA6CD5F854A06261AA6DD4F81CB0ED6DAE
:104728004AEA02020BEA0909C4F81C90E261A26A8B
:10473800C4F828E0A56241B1012935D08A1E022AB1
:1047480001D9072932D1022500E004253421A6EB3E
:104758000806E26A01FB030305FB06F602F0E02205
:10476800196E0336E26201FB05F15B6E104A012502
:1047780046EA01460021E6620E46D4F830E00EEA29
:1047880002022263236357F80C302B4347F80C309E
:104798007D6280F8A15080F8A0103046BDE8F08F07
:1047A80002263046BDE8F08F0325CFE70125CDE787
:1047B80000F8FFFFF8F8FFFF90F8A030012B2DE973
:1047C800F04F83B000F0B480D70106680223342488
:1047D80084374FF0000880F8A130F319F56804FB1E
:1047E8000204D3F80490C5F30B4CE56B09F4704947
:1047F800D4F838E0E1640CEB050AC3F804900EF134
:10480800010BD6F80CC0D4F84490CCF30B4C0195AE
:10481800256CDC444CEA0A4C05F1010A256DC3F805
:1048280004C0D6F80CB0D3F808C0CBF30A0B0CF4CC
:10483800704CD944C3F808C0D6F80CC0CCF30A0CA5
:10484800E24494F868C04AEA094994F869A04CEA35
:10485800056CC3F808904CEA0A2C94F86A90D3F8CF
:1048680010A04CEA094CD4F848902AF0070AC3F87B
:1048780010A0C3F81090D3F818A0C3F81880C3F894
:1048880018C0D3F814C0DFF8C4A02CF0FF0CC3F88C
:1048980014C05961D96901EA0A0AD4E9151CE46D02
:1048A80041EA0C01C3F81CA0D961996AC3F82880B1
:1048B8009C62B9F1000F0CD0B9F1010F3DD0A9F1FC
:1048C8000201022902D9B9F1070F39D14FF0020CC0
:1048D80001E04FF0040C01993424A1EB0E0504FB10
:1048E8000202D96A146E0CFB05F501F0E021D2F83A
:1048F80064E004FB0CF40335D9624FF0010C45EA7F
:10490800044511490022DD621D6B144629401963D4
:10491800C3F830E0F35943EA0C03F351C6F824C056
:1049280080F8A1C080F8A020204603B0BDE8F08F31
:104938000224204603B0BDE8F08F4FF0030CCAE70D
:104948004FF0010CC7E700BF00F8FFFFF8F8FFFFC2
:1049580090F8A030012B2DE9F04F83B000F0B7801C
:10496800D70106680223342484374FF0000980F801
:10497800A130F319F56804FB0204DFF86C81D3F861
:1049880004C0C5F30B4EE56B0CF4704CD4F838B08A
:10499800E165C3F804C00EEB050CD6F80CE00BF18A
:1049A800010A0095CEF30B4E656CD6440195256C33
:1049B8004EEA0C4E05F1010C019DC3F804E0D6F84F
:1049C8000CA0D3F808E0CAF30A0A0EF4704EAA4401
:1049D800256DC3F808E0D6F80CE0CEF30A0EE644DD
:1049E80094F868C04EEA0A4E94F869A04CEA056C3F
:1049F800C3F808E04CEA0A2C94F86AE0D3F810A04F
:104A08004CEA0E4CD4F848E02AF0070AC3F810A084
:104A1800C3F810E0D3F818A0C3F81890C3F818C06A
:104A2800D3F814C0D4F84CA02CF0FF0CC3F814C071
:104A3800C3F814A0D3F81CA0D4E915C40AEA0808DE
:104A48004CEA0404C3F81C80DC619C6AC3F8289013
:104A58009962BEF1000F0CD0BEF1010F3CD0AEF14F
:104A68000201022902D9BEF1070F38D14FF0020C1A
:104A780001E04FF0040C009C3421A4EB0B0501FB72
:104A88000202DC6A116E0CFB05F504F0E02401FB60
:104A98000CFB0335DC62012445EA0B45D2F864C0FF
:104AA80010490022DD62D3F830E015460EEA010114
:104AB8001963C3F830C0F3592343F351746280F883
:104AC800A14080F8A020284603B0BDE8F08F022559
:104AD800284603B0BDE8F08F4FF0030CCBE74FF04A
:104AE800010CC8E700F8FFFFF8F8FFFF90F8A020D6
:104AF800012A13D003460222006870B483F8A1206B
:104B08000125426B0024064E2A4342632046316445
:104B180083F8A15083F8A04070BC7047022070470A
:104B2800006801401B4A1C4B116C41F0805130B5A4
:104B3800116483B0126C1C4602F080520192019AF3
:104B48001A6842F480321A60FEF7D6F8054605E086
:104B5800FEF7D2F8401BB0F57A7F17D86368DA03FE
:104B6800F6D523680C4D43F400332360FEF7C4F8F0
:104B7800044605E0FEF7C0F8001BB0F57A7F05D8BB
:104B88006B689B03F6D5002003B030BD032003B04B
:104B980030BD00BF0038024000700040002800F01F
:104BA800348103682DE9F041DD0782B0044635D52C
:104BB800AB498A6802F00C02042A00F0FE808A6879
:104BC80002F00C02082A00F0F4806368B3F5803F15
:104BD80010D0002B00F01B81B3F5A02FA04B1A6852
:104BE80000F0628122F480321A601A6822F480226E
:104BF8001A6004E09A4A136843F480331360FEF79E
:104C08007BF8974D064605E0FEF776F8801B64288A
:104C180000F2EE802B689A03F6D523689F0742D4EA
:104C28001A0717D56369002B00F0B0808C4B5A6FB8
:104C38001D4642F001025A67FEF75EF8064605E097
:104C4800FEF75AF8801B022800F2D2806B6F9B0790
:104C5800F6D523685D076BD5814B1A6CD00000F13F
:104C6800ED801A6C012542F080521A641B6C03F027
:104C780080530193019B7B4B1A68D10540F1A780B3
:104C8800A368012B39D0002B00F0DA80052B744B78
:104C98001A6F00F0118122F001021A671A6F22F0D0
:104CA80004021A672EE06E4A916811F00C0F62D068
:104CB800916801F00C0108295AD0E368002B00F034
:104CC800DF80674B1A681D4642F001021A60FEF742
:104CD80013F8064605E0FEF70FF8801B022800F2DD
:104CE80087802B689807F6D52B68226923F0F8038C
:104CF80043EAC2032B60236892E7594A136F43F0D3
:104D080001031367FDF7F8FF554E804641F28837D7
:104D180005E0FDF7F1FFA0EB0800B84268D8336F53
:104D28009B07F6D525B14E4A136C23F080531364C4
:104D3800A369CBB14A4A916801F00C01082921D036
:104D4800022B136800F0C08023F0807314461360B0
:104D5800FDF7D2FF054604E0FDF7CEFF401B022811
:104D680046D823689B01F7D4002002B0BDE8F08143
:104D780052685602A1D43A4A126895073CD5E268AF
:104D8800012A39D0012002B0BDE8F081344B5A6FB6
:104D98001D4622F001025A67FDF7AEFF064604E001
:104DA800FDF7AAFF801B022822D86B6F9F07F7D454
:104DB8004FE74A6850027FF508AF294A1268910305
:104DC8007FF52CAF6268002A7FF428AFDAE71A680B
:104DD8001E4642F480721A60FDF78EFF074633685C
:104DE800DA053FF54DAFFDF787FFC01B6428F6D9FC
:104DF800032002B0BDE8F081194920690A6822F051
:104E0800F80242EAC0020A600AE701207047144B20
:104E18001A681D4622F480321A601A6822F4802229
:104E28001A60FDF769FF064604E0FDF765FF801B81
:104E38006428DDD82B689B03F7D4EEE600251AE733
:104E4800074B41F288381A6F1E4622F001021A6792
:104E58001A6F22F004021A67FDF74EFF074608E0B2
:104E68000038024000700040FDF746FFC01B404577
:104E7800BED8336F9807F7D4002D3FF459AF52E7E7
:104E88002B4B1A681D4622F001021A60FDF734FF09
:104E9800064604E0FDF730FF801B0228A8D82B68DF
:104EA8009907F7D42368BBE642F480221A601A688F
:104EB80042F480321A60A2E642F004021A671A6FBE
:104EC80042F001021A671DE723F08073154613604C
:104ED800FDF712FF064604E0FDF70EFF801B0228CF
:104EE80086D82B689901F7D4D4E90732606A13434E
:104EF800D4E90A2143F000530D4C520843EA8013C9
:104F0800013A43EA016343EA02436B602B6843F0CA
:104F180080732B60FDF7F0FE054605E0FDF7ECFE1B
:104F2800401B02283FF664AF23689A01F6D51BE7B9
:104F38000038024078B15E4A136803F00F038B42D1
:104F48000BD2136823F00F030B431360136803F0AD
:104F58000F038B4201D00120704703682DE9F0410F
:104F68009D0714D55C0704D5524CA26842F4E05260
:104F7800A2601A0704D54F4CA26842F46042A260AE
:104F88004C4C8568A26822F0F0022A43A260DF0731
:104F980004460D4621D54268464B012A1B6863D05A
:104FA800022A78D0990728D5424941F288388B6877
:104FB8000E4623F0030313438B60FDF79DFE07465F
:104FC80004E0FDF799FEC01B404562D8B3686268EB
:104FD80003F00C03B3EB820FF3D1354A136803F0E7
:104FE8000F03AB420CD9136823F00F032B43136054
:104FF800136803F00F03AB4202D00120BDE8F08133
:1050080023685A0706D52B49E0688A6822F4E052DB
:1050180002438A601B0707D5264A2169936823F44F
:10502800604343EAC103936022498B6803F00C0391
:10503800042B1CD0082B2AD14A684B6802F03F0287
:10504800496813F4800329D11B48C1F38811A1FBD7
:105058000001FBF7F3FD174B5B68C3F30143013312
:105068005B00B0FBF3F303E09E039DD4C5E7134B4D
:10507800104A0020124C92681249C2F30312A25C33
:10508800D3400B6003F034FC0020BDE8F0810A4BEC
:10509800EEE70320B2E7980186D4AEE70748C1F3EC
:1050A80088110023A1FB0001FBF7C8FDD3E700BF6F
:1050B800003C0240003802400024F40040787D01A2
:1050C8009891010868000020164908B58B6803F01C
:1050D8000C03042B1BD0082B17D14A684B6802F02D
:1050E8003F02496813F4800313D10F48C1F38811B4
:1050F800A1FB0001FBF7A2FD0A4B5B68C3F3014368
:1051080001335B00B0FBF3F008BD074808BD074852
:1051180008BD0648C1F388110023A1FB0001FBF775
:105128008DFDE9E7003802400024F40040787D0155
:10513800014B1868704700BF68000020044B054AFF
:105148009B680549C3F382230868D35CD84070473D
:1051580000380240A891010868000020044B054A65
:105168009B680549C3F342330868D35CD84070474D
:1051780000380240A8910108680000200E4B0F2259
:1051880002609A6802F0030242609A6802F0F00234
:1051980082609A6802F4E052C2609B68DB0810B42F
:1051A80003F4E053054C036123685DF8044B03F0F6
:1051B8000F030B60704700BF00380240003C0240FC
:1051C80003682DE9F04313F0010683B004460BD0C1
:1051D800B84A916821F400019160466B91683143A7
:1051E800B6FA86F67609916013F4002510D0B14915
:1051F800E56BD1F88C20B5F5801F22F4401242EA05
:105208000502C1F88C2000F0B081B5FA85F56D096A
:10521800D90210D5A748216CD0F88C20B1F5800FA1
:1052280022F4400242EA0102C0F88C2000F09B817F
:10523800002908BF012513F0807F18BF01269A06B0
:1052480000F14981D9060CD59A4AD2F88C1021F080
:105258008071C2F88C10D2F88C10A06B0143C2F890
:105268008C105A0408D59349606ED1F8902022F426
:1052780040320243C1F890201F0408D58D49A06E22
:10528800D1F8902022F440220243C1F89020D8039C
:1052980008D58849E06ED1F8902022F440120243E4
:1052A800C1F89020990308D58249206FD1F8902041
:1052B80022F440020243C1F890205A0608D57D49DD
:1052C800606CD1F8902022F003020243C1F89020CC
:1052D8001F0608D57749A06CD1F8902022F00C025F
:1052E8000243C1F89020D80508D57249E06CD1F87E
:1052F800902022F030020243C1F89020990508D589
:105308006C49206DD1F8902022F0C0020243C1F808
:1053180090205A0508D56749606DD1F8902022F48D
:1053280040720243C1F890201F0508D56149A06D5D
:10533800D1F8902022F440620243C1F89020D804AA
:1053480008D55C49E06DD1F8902022F44052024320
:10535800C1F89020990408D55649206ED1F89020BC
:1053680022F440420243C1F890205A0208D551491C
:10537800A06FD1F8902022F080620243C1F89020FB
:105388009F020CD54B49E06FD1F89020B0F1006F27
:1053980022F0006208BF01250243C1F8902013F0F3
:1053A800080F18BF0125580308D54249606FD1F886
:1053B800902022F040720243C1F8902019020BD4C9
:1053C800B3F1007F16D0F20714D4012D00F0D0807D
:1053D800002003B0BDE8F0833649B3F1007FD4F86C
:1053E8008000D1F8902022F0805242EA0002C1F8F1
:1053F8009020E8D12F4B1A681E4622F080621A606E
:10540800FDF77AFC074604E0FDF776FCC01B64282C
:105418005DD833681B01F7D42368DF0712D5626BA8
:1054280082B9D6F88420D6F8847002F440326068D5
:1054380007F07067A1683A4342EA801242EA0172B3
:10544800C6F884201E0300F11181D80204D5226C0D
:10545800B2F5800F00F00F81D90111D5154E6068A3
:10546800D6F88420D6F8847002F07062216907F0BB
:10547800E0473A4342EA801242EA0142C6F88420F1
:105488009A010DD5236962681B04D4E9021043EA26
:105498008213084A43EA006343EA0173C2F884307E
:1054A800044B1A681E4642F080621A60FDF724FC1D
:1054B800074606E000380240FDF71EFCC01B6428C2
:1054C80005D833681B01F7D5012D81D150E00320A1
:1054D80003B0BDE8F083874A874B116C1F4641F043
:1054E80080511164126C02F080520192019A1A687C
:1054F80042F480721A60FDF7FFFB804605E0FDF775
:10550800FBFBA0EB08006428E1D83B68DB05F6D577
:10551800784A236B116F03F4407011F4407111D075
:1055280081420FD0116F176F21F4407147F4803713
:105538001767176F27F4803717671167116FCF0741
:1055480000F1C380B0F5407F00F0B18069498A68F6
:1055580022F4F8128A60674AC3F30B03116F0B43F6
:10556800136723686EE6012665E6002501264FE6E7
:10557800604B1A681D4622F080521A60FDF7BCFB8A
:10558800064604E0FDF7B8FB801B64289FD82B680B
:105598009F00F7D423681D0300F19280D8021DD51F
:1055A800226CDAB953496569D1F88820D1F8886046
:1055B80002F44032A06906F0E046324342EA85121E
:1055C80042EA0062C1F88820D1F88C20A06A22F44F
:1055D800F852013842EA0022C1F88C20990215D508
:1055E800E26FB2F1006F11D142496569D1F88820A4
:1055F800D1F8886002F07062206A06F0E046324313
:1056080042EA851242EA0042C1F888201A0719D5F1
:10561800384A6569D2F88810D2F8883001F070618C
:10562800E06903F440330B4343EA851343EA00730C
:10563800C2F88830D2F88C30E16A23F440330B4347
:10564800C2F88C302B4B1A681C4642F080521A6004
:10565800FDF752FB054605E0FDF74EFB401B6428AD
:105668003FF635AF23689B00F6D5B1E6E26BB2F59D
:10567800801F7FF4EAAE1F4E6068D6F88420D6F803
:10568800847002F44032E16807F0E0473A4342EAA6
:10569800801242EA0162C6F88420D6F88C10626A49
:1056A80021F01F01013A0A43C6F88C20D4E61148BC
:1056B80012498268194022F4F8120A4382604AE7C4
:1056C800E26B002A3FF46EAF68E7174641F288386C
:1056D800FDF712FB814606E0FDF70EFBA0EB090083
:1056E80040453FF6F4AE3B6F9807F5D5236B03F4BE
:1056F800407027E70038024000700040FFFCFF0FB1
:10570800534B544A0260D3F88420C2F38812426093
:10571800D3F88420C2F301420261D3F88420C2F393
:105728000362C260D3F88420C2F302728260D3F8A5
:105738008820C2F388124261D3F88820C2F301425C
:105748000262D3F88820C2F303628261D3F888200A
:10575800C2F30272C261D3F88C2002F01F024262C7
:10576800D3F88C20C2F304228262D3F88C20C2F3CF
:105778000142C262D3F88C2002F44012C263D3F80B
:105788008C2002F4400202649A6802F40002426328
:10579800D3F8902002F440324266D3F8902002F405
:1057A80040228266D3F8902002F44012C266D3F8F1
:1057B800902002F440020267D3F8902002F003021E
:1057C8004264D3F8902002F00C028264D3F890204F
:1057D80002F03002C264D3F8902002F0C0020265E1
:1057E800D3F8902002F440724265D3F8902002F476
:1057F80040628265D3F8902002F44052C265D3F823
:10580800902002F440420266D3F8902002F04072E1
:105818004267D3F8902002F080628267D3F8902024
:1058280002F00062C267D3F8902002F08052C0F8FC
:10583800802099681A6F01F4F81102F440720A4343
:105848000263D3F88C3003F080738363704700BF22
:1058580000380240F1FFFF00B0F5002F10D0B0F57E
:10586800801F0BD12E4AD2F88C3003F44003B3F5D5
:10587800800F33D0B3F5000F0DD073B100207047FF
:10588800274AD2F88C3003F44013B3F5801F25D093
:10589800B3F5001FF1D123487047536813F4800F04
:1058A800536808BF204803F03F0318BF1F48B0FBE8
:1058B800F3F01B4BD3F88820D3F88810C2F30362A7
:1058C800D3F88C30C1F38811C3F3042300FB01F033
:1058D8000133B0FBF2F0B0FBF3F07047536813F4F8
:1058E800800F536808BF104803F03F0318BF0F48E4
:1058F800B0FBF3F00A4BD3F88420D3F88410C2F33A
:105908000362D3F88C30C1F3881103F01F0300FB46
:1059180001F00133B0FBF2F0B0FBF3F0704700BFC9
:10592800003802400080BB000024F40040787D016C
:10593800704700BF002800F0F080F8B590F87D307F
:10594800044603F0FF02002B00F0E2807D4B0221A9
:105958007D481A68236884F87D10A0FB0202196844
:10596800120B21F480319200196002E01968CD030E
:1059780008D512F1FF32F9D2D4F8802042F0400263
:10598800C4F88020E268012A00F0A680022AA268F2
:105998000BBF2120012020210021022A00F0A28033
:1059A800032A00F0C580012A6848E2690CBF4FF459
:1059B80080670027834200F09C802030181AB0FAD4
:1059C80080F04009002840F09480614D2960002A49
:1059D80000F092805F4A934200F0AE8020329342FA
:1059E80000F0AA8000EB8000E5695B4A41006D0287
:1059F800B1FBF5F1A2FB0102D00800EB80022062A6
:105A0800A1EB4201092900F08A806268E16B32F05B
:105A1800020577D1012914BF4FF400760026216BC7
:105A28004FF2200ED3F800C00A43616B256C0A437D
:105A3800A16B0A43616A0A4321690A4361690A43FF
:105A480046490CEA01013A43DFF81CC100271960F6
:105A580019680A43A16942EA0052A06A3243014325
:105A6800E06A1A605E680143226DA06C06EA0C0CBD
:105A78000126C3F804C002435868D4F84CC0014357
:105A8800374842EA0C0205F1FF3C5960996842EA3E
:105A98000C020840616C01399860986842EA01225A
:105AA800616D0243A06D9A6041EA0002D9683846E8
:105AB8000EEA0105216EDD6042EA0142DD68E16D12
:105AC800013942EA01222A43DA60C4F8807084F876
